S01200005475726E2D73676E616C2E7372656327
S113000009C021C020C01FC01EC01DC078C11BC0B4
S11300101AC019C011241FBECFE9CDBF10E0A0E65D
S1130020B0E0E2E4F3E002C005900D92AA36B10715
S1130030D9F720E0AAE6B0E001C01D92A837B207C4
S1130040E1F78CD07CC1DCCFFC0186B390E000806A
S113005002C0959587950A94E2F780FF1AC08181C2
S11300609281883022E0920790F4019692838183F2
S11300708630910560F0853F914018F481E08383D8
S113008006C083E0838382E192E09283818383814B
S11300900895128211828381813021F0833021F00E
S11300A080E003C082E001C084E01382089580935D
S11300B06900089510926A00089591E090936A008F
S11300C080936C0060936B00089580916800863083
S11300D031F18730C1F1813009F03FC080916A006D
S11300E08823D9F190916C009093770080916B00F4
S11300F08F3F41F0811103C010926A00089581502E
S113010080936B0086E08093680088B3982B98BB3B
S113011081E08093740086E980937500089580914E
S113012074008230D1F487E08093680098B38091A2
S113013077008095892388BB81E08093740086E9E9
S113014080937500089580917400823031F481E0C9
S11301508093680088B3877E88BB089588E187BB55
S113016018BA82E08FBD83BF8FE186BF84E089BF68
S11301707894809176008823E1F310927600809140
S11301806900833009F469C030F4813059F0823059
S113019009F0A1C032C0843009F48FC0853009F061
S11301A09AC092C087DF80917300813011F0833050
S11301B029F463E088E081DF82E079DF80917200D6
S11301C0813011F0833029F463E080E176DF83E04D
S11301D06EDF80917100823029F463E088E16DDF85
S11301E084E065DF80917100833009F077C06FEFA0
S11301F088E163DF85E05BDF71C08091710082304C
S113020029F484E054DF63E088E157DF80917100D2
S1130210833029F485E04BDF6FEF88E14EDF809176
S11302207200813011F0833029F463E080E145DF0E
S113023083E03DDF80916A00811150C0809173009A
S1130240823021F0843011F0811103C081E02FDF6E
S113025045C061E088E031DF41C0809171008230A7
S113026029F484E024DF63E088E127DF80917100D2
S1130270833029F485E01BDF6FEF88E11EDF809176
S11302807300813011F0833029F463E088E015DFD6
S113029082E00DDF80916A00811120C0809172009C
S11302A0823021F0843011F0811103C081E0FFDE3F
S11302B015C061E080E101DF11C080916A00811105
S11302C00DC081E0F4DE0AC080917100823031F407
S11302D081E0EDDE03C081E080936900F6DE84E610
S11302E090E0B2DE8093730080E690E0ADDE809310
S11302F072008DE690E0A8DE809371003ACF1F92E1
S11303000F920FB60F9211248F9380917400813055
S113031069F480917500882331F0809175008150D3
S11303208093750003C082E08093740081E0809321
S113033076008F910F900FBE0F901F901895F89430
S1050340FFCFE9
S10D034201000000020000000101A8
S9030000FC
