S0160000726567756C61746F725F706F6D702E737265631E
S11300000EC01BC01AC019C018C017C016C015C036
S113001015C013C012C011C010C00FC00EC01124EF
S11300201FBECFEDCDBF20E0A0E6B0E001C01D9221
S1130030A236B207E1F720D068C0E2CF1F920F9238
S11300400FB60F9211248F939F9384B195B182338D
S1130050910510F482E390E0909361008093600036
S11300608AE18A95F1F700C0369A9F918F910F909B
S11300700FBE0F901F90189580E886BD16BC18BA65
S11300809BE397BB1ABC13BE12BE19BC18BC17BCA9
S113009010BE1CBC1FBC1EBC1BBC1DBC1BBE15BEA5
S11300A019BE1DB888B913B814BA84B3837084BB5D
S11300B084B384BB81E087B98FEE86B983B1887538
S11300C083B92FEF80E792E0215080409040E1F720
S11300D000C000007894C09AEFE7F8E321E0E15013
S11300E0F0402040E1F700C00000C098809160001B
S11300F0909161008230910570F3EFE9FFE0319750
S1110100F1F700C000000197F5CFF894FFCF8F
S9030000FC
