S00F000056425F4D4541532E73726563F8
S1130000ACC00000C7C00000C5C00000C3C00000F1
S1130010C1C00000BFC00000BDC00000BBC00000E4
S1130020B9C00000B7C00000B5C00000B3C00000F4
S1130030B1C00000AFC0000050C40000ABC000005D
S113004022C40000A7C00000A5C00000A3C0000097
S1130050A1C000009FC000009DC000009BC0000024
S113006099C0000097C0000095C0000093C0000034
S113007091C000008FC000007AC70000A1C7000033
S113008089C0000087C0000085C00000F904340561
S113009058057C05A005C405E8050C063006540681
S11300A078069C06C006E40608072C075007740768
S11300B02053454E53203138002053454E532031B0
S11300C037002053454E53203136002053454E53BC
S11300D0203135002053454E532031340020534500
S11300E04E53203133002053454E532031320020EB
S11300F053454E53203131002053454E5320313067
S1130100002053454E53203039002053454E532090
S11301103038002053454E53203037002053454E8D
S113012053203036002053454E53203035002053A1
S1130130454E53203034002053454E532030330075
S11301402053454E53203032002053454E53203027
S1130150310020003D003C003E0011241FBECFEFC3
S1130160D0E1DEBFCDBF11E0A0E0B1E0E0E8F0E116
S113017000E00BBF02C007900D92AA30B107D9F777
S113018021E0AAE0B1E001C01D92AF34B207E1F76B
S1130190B4D374C735CF611102C0DD9801C0DD9AB4
S11301A087FF02C0DE9A01C0DE9886FF02C0DF9A94
S11301B001C0DF9885FF02C0AF9A01C0AF9884FFE9
S11301C002C0AE9A01C0AE9892E49A95F1F700C0CD
S11301D0DC9A92E49A95F1F700C0DC9892E49A953F
S11301E0F1F700C083FF02C0DE9A01C0DE9882FFEF
S11301F002C0DF9A01C0DF9881FF02C0AF9A01C03C
S1130200AF9880FF02C0AE9A01C0AE9882E48A958E
S1130210F1F700C0DC9A92E49A95F1F700C0DC98FB
S113022082E48A95F1F700C008958FE097E2019780
S1130230F1F700C000008AB3806F8ABBDF9884B3F3
S1130240806C84BBAE988FE097E20197F1F700C011
S11302500000AE9AAF9A87E893E10197F1F700C0E6
S11302600000AE988FEC97E00197F1F700C0000012
S1130270DC9A8FEC97E00197F1F700C00000DC985E
S11302808FEC97E00197F1F700C0000060E088E28E
S113029082DF60E08CE07FDF60E086E07CDF60E0AE
S11302A081E079DF8FE19EE40197F1F700C000005F
S11302B0089561E070CF823061F018F4813089F4E0
S11302C005C0833049F0843061F409C0862F815819
S11302D008C0862F815405C0862F8D5602C0862FF4
S11302E08D5260E058CFCF93DF93EC0103C061E0FF
S11302F052DF2196FE0184918111F9CFDF91CF91D4
S113030008958150893030F4E82FF0E0E050FF4F39
S11303108081089580E308958F929F92AF92BF9257
S1130320CF92DF92EF92FF920F931F93CF93DF93BD
S1130330CDB7DEB729970FB6F894DEBF0FBECDBF99
S1130340AA24A394B12CAC0EBD1E25E0F501119294
S11303502A95E9F78E010E5F1F4F4E01F6E08F0ECE
S1130360911C4AE0C42ED12CE12CF12CA70196015A
S11303705DD6862F2E833F8348875987C2DFF801D5
S113038081938F012E81622F3F81732F4885842FA3
S11303905985952FE815F90549F78E010A5F1F4F16
S11303A0FFEFAF1ABF0AF80182918F0182DF0A15AD
S11303B01B05C9F729960FB6F894DEBF0FBECDBF53
S11303C0DF91CF911F910F91FF90EF90DF90CF902D
S11303D0BF90AF909F908F900895D898DA98089521
S11303E010BE83E083BF94E892BF11BE1FBC8EBDD4
S11303F08BE08DBD8CED8CBD17BC16BC1BBC1ABC30
S113040019BC18BC109279001092780015BC14BC69
S113041013BC10928B0010928A00109289001092E3
S11304208800109281001092800010928700109230
S1130430860010928500109284001092830010921E
S1130440820010926A001ABE19BE85E087BF10921E
S11304507D001AB810929A0080E888B910BC16B8CA
S11304601DB810927400089584B3807E84BB85B354
S11304708F6185BB0895989B15C0999B15C09A9B65
S113048015C09B9B15C09C9B15C01AC09EE1909300
S113049041018093420108959931A0F49F5F9093A4
S11304A04101089581E007C082E005C083E003C0F4
S11304B084E001C085E090914101943169F7E6CF71
S11304C010924101089582B112B883B18FEF83B9BC
S11304D097B317BA98B388BB81B38C7F81BB82B3BF
S11304E0836082BB089580912E01811111C0089907
S11304F012C021E020932E0180910A0190910B01FA
S1130500019690930B0180930A012093400103C04C
S1130510089910922E0180912F01811111C009991F
S113052012C021E020932F0180910C0190910D01C4
S1130530019690930D0180930C012093400103C018
S1130540099910922F0180913001811111C00A99EB
S113055012C021E02093300180910E0190910F018F
S1130560019690930F0180930E012093400103C0E4
S11305700A991092300180913101811111C00B99B7
S113058012C021E02093310180911001909111015A
S1130590019690931101809310012093400103C0B0
S11305A00B991092310180913201811111C00C9983
S11305B012C021E020933201809112019091130125
S11305C0019690931301809312012093400103C07C
S11305D00C991092320180913301811111C00D994F
S11305E012C021E0209333018091140190911501F0
S11305F0019690931501809314012093400103C048
S11306000D991092330180913401811111C00E991A
S113061012C021E0209334018091160190911701BA
S1130620019690931701809316012093400103C013
S11306300E991092340180913501811111C00F99E6
S113064012C021E020933501809118019091190185
S1130650019690931901809318012093400103C0DF
S11306600F991092350180913601811111C0B09912
S113067012C021E02093360180911A0190911B0150
S1130680019690931B0180931A012093400103C0AB
S1130690B0991092360180913701811111C0B1993E
S11306A012C021E02093370180911C0190911D011B
S11306B0019690931D0180931C012093400103C077
S11306C0B1991092370180913801811111C0B2990A
S11306D012C021E02093380180911E0190911F01E6
S11306E0019690931F0180931E012093400103C043
S11306F0B2991092380180913901811111C0B399D6
S113070012C021E0209339018091200190912101B0
S1130710019690932101809320012093400103C00E
S1130720B3991092390180913A01811111C0B499A1
S113073012C021E020933A0180912201909123017B
S1130740019690932301809322012093400103C0DA
S1130750B49910923A0180913B01811111C0B5996D
S113076012C021E020933B01809124019091250146
S1130770019690932501809324012093400103C0A6
S1130780B59910923B0180913C01811111C0B69939
S113079012C021E020933C01809126019091270111
S11307A0019690932701809326012093400103C072
S11307B0B69910923C0180913D01811111C0B79905
S11307C012C021E020933D018091280190912901DC
S11307D0019690932901809328012093400103C03E
S11307E0B79910923D0180913E01811111C0809909
S11307F012C021E020933E0180912A0190912B01A7
S1130800019690932B0180932A012093400103C009
S1130810809910923E0180913F01811111C081990C
S113082012C021E020933F0180912C0190912D0171
S1130830019690932D0180932C01209340010895FB
S1130840819910923F010895959A07C0E7EEF3E06D
S11308503197F1F700C00000019782309105B0F79D
S113086095980895813039F028F0823031F0833042
S113087049F406C0B2CDD89804C0D89ADA9808953D
S1130880D89ADA9A08951F920F920FB60F921124F4
S11308900BB60F922F933F934F935F936F937F9376
S11308A08F939F93AF93BF93EF93FF9384E882BF9B
S11308B0E2DD19DEFF91EF91BF91AF919F918F918E
S11308C07F916F915F914F913F912F910F900BBE4C
S11308D00F900FBE0F901F9018951F920F920FB696
S11308E00F9211248F938BE08DBD8CED8CBD8F9175
S11308F00F900FBE0F901F90189572DDB5DDE3DDEC
S11309008D9A9598D19AD99AD09AD898D29ADA98F9
S1130910D39ADB98A59AAD9883E0A4DF86DC7DD3D7
S1130920789482E390E090DF6AE071E081E052D055
S11309308FE493EC0197F1F700C0000082E390E0AC
S113094083DF4BDDC1E08091400110924001882398
S113095051F082E087DF6AE071E08C2F3BD085E0C4
S113096090E072DF3ADD80914201109242018330BF
S113097079F08530E1F0813031F785E090E064DF93
S1130980C150C23078F488E290E05EDFC1E00AC072
S113099085E090E059DFCF5FC23120F088E290E03B
S11309A053DFC2E16AE071E08C2F14D0CCCF81E038
S11309B059DF82E390E048DFEAE0F1E0119211921E
S11309C091E0EE32F907D1F76AE071E08C2F02D0A2
S11309D004DDB9CFCF93DF93EB0190E0FC013197B5
S11309E0E231F10508F0C0C2EA5BFF4F62E081E04A
S11309F03FC361DC89E491E076DC6AE081E05BDCA2
S1130A0084E591E070DC6BE081E055DC68817981FC
S1130A1080E090E081DC62E082E04DDC80E491E003
S1130A2062DC6AE082E047DC84E591E05CDC6BE058
S1130A3082E041DC6A817B8180E090E06DDC61E0F2
S1130A4082E039DC82E591E04EDC60E182E033DC77
S1130A5082E591E048DC61E081E02DDC88E591E00D
S1130A6042DC60E181E07AC226DC89E491E03BDC8F
S1130A706AE081E020DC84E591E035DC6BE081E034
S1130A801ADC6881798180E090E046DC62E082E0F3
S1130A9012DC80E491E027DC6AE082E00CDC84E58F
S1130AA091E021DC6BE082E006DC6A817B813FC25D
S1130AB002DC80E491E017DC6AE081E0FCDB84E5A1
S1130AC091E011DC6BE081E0F6DB6A817B8180E000
S1130AD090E022DC62E082E0EEDB87E391E003DC7D
S1130AE06AE082E0E8DB84E591E0FDDB6BE082E034
S1130AF0E2DB6C817D811BC2DEDB87E391E0F3DB0B
S1130B006AE081E0D8DB84E591E0EDDB6BE081E035
S1130B10D2DB6C817D8180E090E0FEDB62E082E0EC
S1130B20CADB8EE291E0DFDB6AE082E0C4DB84E5CD
S1130B3091E0D9DB6BE082E0BEDB6E817F81F7C19F
S1130B40BADB8EE291E0CFDB6AE081E0B4DB84E5DE
S1130B5091E0C9DB6BE081E0AEDB6E817F8180E0F8
S1130B6090E0DADB62E082E0A6DB85E291E0BBDBC9
S1130B706AE082E0A0DB84E591E0B5DB6BE082E033
S1130B809ADB68857985D3C196DB85E291E0ABDB9E
S1130B906AE081E090DB84E591E0A5DB6BE081E035
S1130BA08ADB6885798580E090E0B6DB62E082E0EC
S1130BB082DB8CE191E097DB6AE082E07CDB84E518
S1130BC091E091DB6BE082E076DB6A857B85AFC1E7
S1130BD072DB8CE191E087DB6AE081E06CDB84E529
S1130BE091E081DB6BE081E066DB6A857B8580E0F8
S1130BF090E092DB62E082E05EDB83E191E073DB14
S1130C006AE082E058DB84E591E06DDB6BE082E032
S1130C1052DB6C857D858BC14EDB83E191E063DB28
S1130C206AE081E048DB84E591E05DDB6BE081E034
S1130C3042DB6C857D8580E090E06EDB62E082E0E3
S1130C403ADB8AE091E04FDB6AE082E034DB84E562
S1130C5091E049DB6BE082E02EDB6E857F8567C126
S1130C602ADB8AE091E03FDB6AE081E024DB84E573
S1130C7091E039DB6BE081E01EDB6E857F8580E0EF
S1130C8090E04ADB62E082E016DB81E091E02BDB5E
S1130C906AE082E010DB84E591E025DB6BE082E032
S1130CA00ADB6889798943C106DB81E091E01BDBBB
S1130CB06AE081E000DB84E591E015DB6BE081E034
S1130CC0FADA6889798980E090E026DB62E082E0E4
S1130CD0F2DA88EF90E007DB6AE082E0ECDA84E5A0
S1130CE091E001DB6BE082E0E6DA6A897B891FC16F
S1130CF0E2DA88EF90E0F7DA6AE081E0DCDA84E5B2
S1130D0091E0F1DA6BE081E0D6DA6A897B8980E0F0
S1130D1090E002DB62E082E0CEDA8FEE90E0E3DA8C
S1130D206AE082E0C8DA84E591E0DDDA6BE082E033
S1130D30C2DA6C897D89FBC0BEDA8FEE90E0D3DA2B
S1130D406AE081E0B8DA84E591E0CDDA6BE081E035
S1130D50B2DA6C897D8980E090E0DEDA62E082E0DC
S1130D60AADA86EE90E0BFDA6AE082E0A4DA84E5EB
S1130D7091E0B9DA6BE082E09EDA6E897F89D7C0B0
S1130D809ADA86EE90E0AFDA6AE081E094DA84E5FC
S1130D9091E0A9DA6BE081E08EDA6E897F8980E0E8
S1130DA090E0BADA62E082E086DA8DED90E09BDAD8
S1130DB06AE082E080DA84E591E095DA6BE082E033
S1130DC07ADA688D798DB3C076DA8DED90E08BDABE
S1130DD06AE081E070DA84E591E085DA6BE081E035
S1130DE06ADA688D798D80E090E096DA62E082E0DC
S1130DF062DA84ED90E077DA6AE082E05CDA84E536
S1130E0091E071DA6BE082E056DA6A8D7B8D8FC0F7
S1130E1052DA84ED90E067DA6AE081E04CDA84E546
S1130E2091E061DA6BE081E046DA6A8D7B8D80E0E7
S1130E3090E072DA62E082E03EDA8BEC90E053DA22
S1130E406AE082E038DA84E591E04DDA6BE082E032
S1130E5032DA6C8D7D8D6BC02EDA8BEC90E043DA48
S1130E606AE081E028DA84E591E03DDA6BE081E034
S1130E7022DA6C8D7D8D80E090E04EDA62E082E0D3
S1130E801ADA82EC90E02FDA6AE082E014DA84E580
S1130E9091E029DA6BE082E00EDA6E8D7F8D47C037
S1130EA00ADA82EC90E01FDA6AE081E004DA84E591
S1130EB091E019DA6BE081E0FED96E8D7F8D80E0E0
S1130EC090E02ADA62E082E0F6D989EB90E00BDA6E
S1130ED06AE082E0F0D984E591E005DA6BE082E033
S1130EE0EAD968A179A123C0E6D989EB90E0FBD9BE
S1130EF06AE081E0E0D984E591E0F5D96BE081E036
S1130F00DAD968A179A180E090E006DA62E082E0B3
S1130F10D2D980EB90E0E7D96AE082E0CCD984E5CD
S1130F2091E0E1D96BE082E0C6D96AA17BA180E0BF
S1130F3090E0F2D961E081E0BED982E591E0D3D9B5
S1130F4060E181E0B8D982E591E0CDD961E082E049
S1130F50B2D988E591E0C7D960E182E0ACD986E5F1
S1130F6091E0DF91CF91BFC9DF91CF9108951F9296
S1130F700F920FB60F9211240BB60F922F938F93EB
S1130F809F93EF93FF93E0914D018E2F8F5F8370BA
S1130F9090919C0020914E01821731F0F0E0E85BC3
S1130FA0FE4F908380934D01FF91EF919F918F911C
S1130FB02F910F900BBE0F900FBE0F901F9018959E
S1130FC01F920F920FB60F9211240BB60F928F93AC
S1130FD09F93EF93FF938091430190914C01891764
S1130FE061F0E82FF0E0EC5BFE4F908190939C0061
S1130FF08F5F83708093430105C080919A008F7D39
S113100080939A00FF91EF919F918F910F900BBE67
S11310100F900FBE0F901F9018958CE0809399004D
S11310201092980088E980939A000895A1E21A2EFC
S1131030AA1BBB1BFD010DC0AA1FBB1FEE1FFF1F78
S1131040A217B307E407F50720F0A21BB30BE40BC8
S1131050F50B661F771F881F991F1A9469F760950F
S11310607095809590959B01AC01BD01CF010895C9
S1131070EE0FFF1F0590F491E02D0994F894FFCF33
S10D10803132333435363738390085
S9030000FC
