S0120000445353504431303047442E7372656378
S113000012C071C62BC02AC029C028C027C026C070
S11300103EC624C023C0DCC5FFC520C01FC01EC00F
S11300201DC01CC01BC011241FBECFE5D4E0DEBF21
S1130030CDBF10E0A0E6B0E0ECE8F5E102C0059029
S11300400D92AA39B107D9F721E0AAE9B0E001C0BD
S11300501D92A436B207E1F785D796CAD1CFCF92C5
S1130060DF92EF92FF920F931F936B017C0120E0CC
S113007030E040E05FE444D387FD0CC020E030E092
S113008040E05FE4C701B60193D1BCD38B019C016E
S1130090305805C0C701B601B5D38B019C01B80126
S11300A0C9011F910F91FF90EF90DF90CF900895B9
S11300B0A4E0B0E0EDE5F0E032CA7C016A01FC01A5
S11300C08081823008F44AC1FB019081923008F4A7
S11300D042C1843079F4943009F040C1F701918130
S11300E0FB018181981709F439C1A0E6EA2EA0E04A
S11300F0FA2E34C1943009F42EC1923091F4823036
S113010009F02CC188E0F701DA0101900D928A957B
S1130110E1F7FB018181F70191818923FA01818350
S11301201CC1823009F417C1F70182819381FB015C
S1130130A281B381F7010481158126813781FB01F6
S113014084809580A680B780FC01EA1BFB0BAF017D
S1130150F7FF04C0442755274E1B5F0B403251055F
S11301600CF074C01E161F06B4F524013501042ECC
S113017004C076946794579447940A94D2F74982BA
S11301805A826B827C82412C512C3201439404C0EC
S1130190440C551C661C771C4A95D2F741E0441A5E
S11301A0510861087108482059206A207B20812C5D
S11301B0912C5401839445284628472819F4812C0E
S11301C0912C540149805A806B807C808428952826
S11301D0A628B72846C0EF2B09F443C0840F951F07
S11301E028013901042E04C07694679457944794E7
S11301F00A94D2F749825A826B827C82412C512C18
S11302003201439404C0440C551C661C771C4A9567
S1130210D2F741E0441A5108610871084022512282
S11302206222732201E010E020E030E045284628F5
S1130230472819F400E010E0980149805A806B8047
S11302407C8004291529262937290BC0A817B9074A
S113025024F4812C912C540104C0CD0100E010E061
S11302609801F7014181FB015181451709F446C00A
S1130270442349F024013501401A510A620A730AE1
S11302809301820104C0081919092A093B0937FDA1
S113029005C0F6011182938382830CC041E0F6010C
S11302A041839383828330952095109501951F4F48
S11302B02F4F3F4F04831583268337830EC0880F47
S11302C0991FAA1FBB1FF60184839583A683B78356
S11302D082819381019793838283F601848195813E
S11302E0A681B781AC01BD01415051096109710971
S11302F04F3F5F4F6F4F7F4310F30CC0F6014183B4
S113030093838283080D191D2A1D3B1D04831583C5
S11303102683378383E0F601808344815581668197
S1130320778177FF1AC0DB01CA0181709927AA2758
S1130330BB277695679557954795842B952BA62BC8
S1130340B72B84839583A683B78382819381019697
S11303509383828302C07B0101C07601C701249686
S1130360E0E1F9C8A0E2B0E0E7EBF1E0E6C86D8FA8
S11303707E8F8F8F98A3298F3A8F4B8F5C8FBE010E
S11303806F5E7F4FCE014D9653D3BE01675F7F4FA3
S1130390CE0149964DD3AE014F5F5F4FBE01675FFB
S11303A07F4FCE01419684DE79D2A096E2E0E1C887
S11303B0A0E2B0E0EDEDF1E0C0C86D8F7E8F8F8FCD
S11303C098A3298F3A8F4B8F5C8FBE016F5E7F4F4E
S11303D0CE014D962DD3BE01675F7F4FCE01499666
S11303E027D38A8591E089278A87AE014F5F5F4FC3
S11303F0BE01675F7F4FCE0141965ADE4FD2A09671
S1130400E2E0B7C8A0E2B0E0E7E0F2E088C86D8FB0
S11304107E8F8F8F98A3298F3A8F4B8F5C8FBE016D
S11304206F5E7F4FCE014D9603D3BE01675F7F4F52
S1130430CE014996FDD29989923008F412C089857B
S1130440823008F41AC0943021F4823009F4B4C024
S113045008C0843021F4923009F4AEC00EC092304A
S113046051F481E02A899A85291301C080E08A8B9E
S1130470CE014196A3C0823051F481E02A899A8545
S1130480291301C080E08A87CE01099697C08D8820
S11304909E88AF88B88C0D851E852F853889E0E24B
S11304A0F0E080E090E0DC01C12CD12C760140E04A
S11304B050E0BA0180FE18C0400F511F621F731F25
S11304C08C0D9D1DAE1DBF1D412C512C320143943A
S11304D0401751076207730718F0412C512C320161
S11304E0840D951DA61DB71DCC0CDD1CEE1CFF1C38
S11304F037FF02C06894C0F8000F111F221F331F7A
S1130500B694A794979487943197A1F62B893C8944
S1130510EB85FC852E0F3F1F2E5F3F4F3C832B83C3
S113052021E0EA893A85E31301C020E02A83EB81C4
S1130530FC810CC080FF05C076956795579547955B
S11305407068B695A795979587953196B7FDF2CFC4
S11305509F010CC0880F991FAA1FBB1F77FD8160E4
S1130560440F551F661F771F215031090097A105BD
S1130570E0E4BE0778F32B833C838C019D010F7765
S1130580112722273327003411052105310559F499
S113059087FD09C0452B462B472B29F0805C9F4FD4
S11305A0AF4FBF4F80788D839E83AF83B88783E03E
S11305B08983CE01019602C080E690E06FD1A096B7
S11305C0E0E1C9C7A8E1B0E0E7EEF2E0B0C76D8BA7
S11305D07E8B8F8B988F298B3A8B4B8B5C8BBE01D8
S11305E0675F7F4FCE01459623D2BE016F5F7F4F79
S11305F0CE0141961DD29985923008F475C0898147
S1130600823008F474C02A853A8123272A879430DB
S113061011F0923019F4981367C06CC0843039F427
S11306201D861E861F86188A1C861B8604C082307F
S113063029F484E08987CE0109965EC08B859C8568
S11306402B813C81821B930B9C878B874D855E8518
S11306506F857889CD80DE80EF80F8844C155D0548
S11306606E057F0538F4440F551F661F771F0197E9
S11306709C878B87EFE1F0E000E010E020E030E4BD
S113068080E090E0DC014C155D056E057F0540F0CF
S1130690802B912BA22BB32B4C195D096E097F097A
S11306A03695279517950795440F551F661F771F95
S11306B0319749F78C019D010F77112722273327A2
S11306C0003411052105310559F487FD09C0452B76
S11306D0462B472B29F0805C9F4FAF4FBF4F80784C
S11306E08D879E87AF87B88BCE01099605C0CE0152
S11306F0019602C080E690E0D1D06896E8E033C766
S1130700A8E1B0E0E5E8F3E018C76D8B7E8B8F8B32
S1130710988F298B3A8B4B8B5C8BBE01675F7F4F25
S1130720CE01459685D1BE016F5F7F4FCE014196C4
S11307307FD18985823050F08981823038F0BE01C2
S11307406F5F7F4FCE010996E2D101C08FEF6896AB
S1130750E2E00FC7A8E0B0E0EFEAF3E0ECC623E084
S113076029838B019C01002737FD0395112722273C
S11307703327402F0A83611571058105910519F40A
S113078082E0898334C02EE130E03C832B83442310
S113079071F061157105810520E8920761F1002768
S11307A011279801061B170B280B390B02C08B016C
S11307B09C01C901B80198D60197181619062CF0A6
S11307C00D831E832F83388712C0082E04C0000FA8
S11307D0111F221F331F0A94D2F70D831E832F8308
S11307E038872EE130E0281B390B3C832B83CE0164
S11307F0019654D004C060E070E080E09FEC28963D
S1130800E4E0B5C6ACE0B0E0E7E0F4E094C66987A4
S11308107A878B879C87BE016F5F7F4FCE010996D5
S113082007D18981823091F1823080F1843041F4A2
S11308308A81882331F100E010E020E030E829C00B
S11308402B813C8137FD22C02F3131058CF78EE19D
S113085090E0821B930B0D811E812F81388504C08B
S113086036952795179507958A95D2F78A81882317
S113087081F030952095109501951F4F2F4F3F4FD4
S113088008C00FEF1FEF2FEF3FE703C000E010E0B9
S11308909801B801C9012C96E4E069C60F931F932F
S11308A0CF93DF93DC0114964D915D916D917C9112
S11308B017971196EC9111978C91823020F4606116
S11308C08FEF90E0A6C0843009F49EC0823009F412
S11308D095C0411551056105710509F492C0129640
S11308E02D913C91139722388FEF38070CF058C0A4
S11308F0C2E8DFEFC21BD30BCA31D1056CF58A0104
S11309009B010C2E04C036952795179507950A94DC
S1130910D2F781E090E0A0E0B0E00C2E04C0880F94
S1130920991FAA1FBB1F0A94D2F70197A109B10905
S113093084239523A623B72341E050E060E070E0D0
S1130940892B8A2B8B2B19F440E050E0BA01402B01
S1130950512B622B732B03C040E050E0BA01DB0142
S1130960CA018F779927AA27BB2780349105A1054F
S1130970B10539F447FF09C0405C5F4F6F4F7F4FAB
S113098004C0415C5F4F6F4F7F4F81E090E04115A1
S11309905105610520E4720748F580E090E026C027
S11309A0203831058CF5DB01CA018F779927AA27F6
S11309B0BB2780349105A105B10539F447FF09C06F
S11309C0405C5F4F6F4F7F4F04C0415C5F4F6F4F80
S11309D07F4F77FD04C0C90181589F4F07C07695AA
S11309E0679557954795C90180589F4F97E076952D
S11309F06795579547959A95D1F70BC080E090E09D
S1130A0005C080E090E005C08FEF90E040E050E04A
S1130A10BA01982F9695E0FB97F9362F80FB37F9AA
S1130A20642F752F832FDF91CF911F910F9108951C
S1130A30CF92DF92EF92DC01FB01CC901196DC9017
S1130A40119712968C9112973FE7E32EE8226E2DB0
S1130A50A60170E0982F991F9927991F13962C913E
S1130A60822F880F892B90E027FB222720F92183EE
S1130A70009729F5411551056105710511F482E0CE
S1130A8027C082E89FEF9383828327E0440F551F9A
S1130A90661F771F2A95D1F783E0808309C0440F2E
S1130AA0551F661F771F82819381019793838283E9
S1130AB041155105610580E4780788F320C08F3F14
S1130AC0910579F4411551056105710519F484E026
S1130AD0808319C0E4FE03C081E0808310C01082CB
S1130AE00EC08F5791099383828383E0808387E0CC
S1130AF0440F551F661F771F8A95D1F7706444838E
S1130B00558366837783EF90DF90CF900895CF93DA
S1130B10FC01DB019081923008F452C08C91823048
S1130B2008F44EC0943071F4843039F411962C9149
S1130B3030E08181281B310948C08181882309F470
S1130B403FC03BC0843029F411968C91811138C088
S1130B5034C0923019F48230B9F735C0823069F369
S1130B60C18111968C911197C8131DC022813381C4
S1130B7012968D919C911397821793070CF413C0CE
S1130B80281739070CF417C0448155816681778191
S1130B9014968D919D910D90BC91A02D841795076D
S1130BA0A607B70718F4C11108C00AC048175907A7
S1130BB06A077B0740F4C11103C02FEF3FEF05C064
S1130BC021E030E002C020E030E0C901CF91089577
S1130BD01F920F920FB60F9211242F938F939F930E
S1130BE0EF93FF93E09162018E2F8F5F8F719CB121
S1130BF020916101821731F0F0E0EF5BFE4F9083AA
S1130C0080936201FF91EF919F918F912F910F90AB
S1130C100FBE0F901F9018951F920F920FB60F9250
S1130C2011248F939F93EF93FF938091630190918D
S1130C302001891759F0E82FF0E0EF5DFE4F908115
S1130C409CB98F5F8F718093630101C05598FF91A8
S1130C50EF919F918F910F900FBE0F901F90189559
S1130C60E09120019E2F9F5F9F7120916301921755
S1130C7039F0F0E0EF5DFE4F808390932001559AA8
S1130C80089583E389B910BC88E98AB908951F924D
S1130C900F920FB60F9211242F933F934F935F93AC
S1130CA06F937F938F939F93AF93BF93EF93FF9330
S1130CB08BE08DBD8CED8CBD80919D00D1DF80914A
S1130CC09C00CEDFFF91EF91BF91AF919F918F91E7
S1130CD07F916F915F914F913F912F910F900FBE34
S1130CE00F901F9018951F920F920FB60F92112418
S1130CF02F933F934F935F936F937F938F939F9320
S1130D00AF93BF93EF93FF9380E091E005C022E09F
S1130D102A95F1F700C08F5F20B383322CF422FBB5
S1130D20222720F92913F3CF90E005C032E03A9549
S1130D30F1F700C09F5F20B3933214F422FDF6CF85
S1130D4094300CF4FEC08430F4F5FBC062E06A9584
S1130D50F1F700C02F5F30B323322CF432FB33277A
S1130D6030F93E13F3CF30E005C062E06A95F1F745
S1130D7000C03F5F60B3333214F462FDF6CF60917C
S1130D809A0070919B00231754F49A01082E02C014
S1130D90220F331F0A94E2F7262B372B0BC09A013C
S1130DA0082E02C0220F331F0A94E2F720953095D3
S1130DB02623372330939B0020939A000197873092
S1130DC0910531F40DC08FE090E0E1E041E050E0A6
S1130DD020E0C1CF22E02A95F1F700C08F5F02C066
S1130DE080E091E020B383322CF422FB222720F907
S1130DF02913F0CF80E005C032E03A95F1F700C046
S1130E008F5F90B3833214F492FDF6CF80E091E0CB
S1130E1005C062E06A95F1F700C08F5F20B38332AA
S1130E202CF422FB222720F92913F3CF90E005C0EC
S1130E3022E02A95F1F700C09F5F20B3933214F4A7
S1130E4022FDF6CF94300CF47CC084300CF03CC00E
S1130E5078C032E03A95F1F700C02F5F30B3233207
S1130E602CF432FB332730F93E13F3CF30E005C0C6
S1130E7062E06A95F1F700C03F5F60B3333214F467
S1130E8062FDF6CF60919A0070919B00231754F491
S1130E909A01082E02C0220F331F0A94E2F7262B70
S1130EA0372B0BC09A01082E02C0220F331F0A945D
S1130EB0E2F7209530952623372330939B00209327
S1130EC09A00019730F40DC087E090E0E1E041E042
S1130ED050E020E0C3CF32E03A95F1F700C08F5FD5
S1130EE002C080E091E020B383322CF422FB22275D
S1130EF020F92913F0CF80E005C062E06A95F1F78C
S1130F0000C08F5F90B3833214F492FDF6CF879BB9
S1130F100EC080919A0090919B0020919E00309188
S1130F209F00821B930B90939B0080939A00809167
S1130F309A0090919B00869B32D090939D00809361
S1130F409C00FF91EF91BF91AF919F918F917F9101
S1130F506F915F914F913F912F910F900FBE0F9022
S1130F601F90189541D0BED08CDE789467D06091E4
S1130F709C0070919D00879902C080E001C081E0CF
S1130F8071D110929D0010929C002FE788E391E0AC
S1130F90215080409040E1F700C00000E8CFA0EA73
S1130FA0B0E0FD01228133812193319321E0EE31C0
S1130FB0F207C1F790931F0180931E0140E050E0B7
S1130FC0BA018D919D91480F591F611D711D81E0DA
S1130FD0A032B807B1F786E076956795579547959F
S1130FE08A95D1F7CA01089518BA8FE387BB15BA59
S1130FF014BA84EC82BB11BA13BE12BE1FBC83E0C8
S11310008EBD8BE08DBD8CED8CBD17BC16BC1BBC9E
S11310101ABC19BC18BC12BC15BC14BC13BC80E4AB
S11310208BBF91E095BF8ABF84E089BF1AB880E87E
S113103088B910BE16B81DB816BE08952FE788E308
S113104091E0215080409040E1F700C00000809181
S11310509C0090919D0090939F0080939E00089522
S1131060611102C0C09801C0C09A87FF02C0C59A2E
S113107001C0C59886FF02C0C49A01C0C49885FF08
S113108002C0C39A01C0C39884FF02C0C29A01C0BF
S1131090C29895E89A95F1F70000C19A95E89A9557
S11310A0F1F70000C19883FF02C0C59A01C0C5983A
S11310B082FF02C0C49A01C0C49881FF02C0C39ACF
S11310C001C0C39880FF02C0C29A01C0C29885E8DB
S11310D08A95F1F70000C19A95E89A95F1F7000016
S11310E0C1980895C29AC39A8FE99FE00197F1F7D6
S11310F000C00000C2988FE99FE00197F1F700C09B
S11311000000C19A8FE99FE00197F1F700C0000049
S1131110C1988FE99FE00197F1F700C0000060E0FB
S113112088E29EDF60E08CE09BDF60E086E098DF91
S113113060E081E095CF61E093CFCF93DF93C82F38
S1131140D62F813029F4C62FC15860E08C2F88DF58
S1131150C23031F460E08D2F8154DF91CF9180CF84
S1131160DF91CF9108951F93CF93DF93EC0110E0AB
S113117003C061E075DF1F5FFE01E10FF11D808197
S11311808111F7CFDF91CF911F910895815089305C
S113119030F4E82FF0E0E859FF4F8081089580E3B0
S11311A008958F929F92AF92BF92CF92DF92EF9267
S11311B0FF920F931F93CF93DF93CDB7DEB7299799
S11311C00FB6F894DEBF0FBECDBFAA24A394B12CF2
S11311D0AC0EBD1E25E0F50111922A95E9F78E01AA
S11311E00E5F1F4F4E01F6E08F0E911C4AE0C42E95
S11311F0D12CE12CF12CA701960140D1862F2E830E
S11312003F8348875987C2DFF80181938F012E817C
S1131210622F3F81732F4885842F5985952FE815B8
S1131220F90549F78E010A5F1F4FFFEFAF1ABF0A96
S1131230F80182918F017FDF0A151B05C9F72996F2
S11312400FB6F894DEBF0FBECDBFDF91CF911F91D3
S11312500F91FF90EF90DF90CF90BF90AF909F9051
S11312608F9008956F927F928F929F92AF92BF92C8
S1131270CF92DF92EF92FF920F931F93CF93DF935E
S1131280EB016B01EE24D7FCE094FE2C882321F0C3
S1131290813009F0BDC007C061E081E04EDF81E725
S11312A090E061DFB5C0C701B60154DA7B018C015F
S11312B04B015C0161E081E040DF82E890E053DFB4
S11312C061E082E03ADF8AE890E04DDF209769F13F
S11312D0D7FF0EC067E081E030DF82E990E043DFB2
S11312E0C501B40190582BE83CE647ED5FE306C026
S11312F02BE83CE647ED5FE3B701C80159D82CEE73
S113130031E143E053E45ED920E030E44CE156E4BB
S113131079D83B018C0120E030E44CE156E4772D90
S1131320912F50D96FDA7B0106C0612C712C00E03B
S113133010E0E12CF12C68E081E0FFDEB7018827A2
S113134077FD8095982F2DDF84E990E00CDF662DE2
S1131350772D802F912F83D624DF209709F43FC067
S1131360D7FF18C067E082E0E8DE82E990E0FBDEA8
S1131370C501B40190582BE83CE647ED5FE318D86B
S11313802CEE31E143E053E41DD920E030E44CE19C
S113139056E410C02BE83CE647ED5FE3C501B40119
S11313A007D82CEE31E143E053E40CD920E030E4DB
S11313B04CE156E427D827E23EE94CE852E422D82F
S11313C07B01D82FC92F20E030E44CE156E4FE0124
S11313D07F2D8F2F9E2FF6D815DA8B0106C0E12CB6
S11313E0F12CD0E0C0E000E010E068E082E0A5DE8F
S11313F0B801882777FD8095982FD3DE84E990E0A3
S1131400B2DE9E016E2D7F2D832F9C2F28D614C013
S113141061E082E092DE86E990E0A5DE66E082E0AB
S11314208CDECE0160E177E216D0882777FD8095C7
S1131430982FB7DEC701B601DF91CF911F910F91AD
S1131440FF90EF90DF90CF90BF90AF909F908F90E0
S11314507F906F90A6CE97FB072E16F4009406D0CB
S113146077FD08D02DD007FC05D03EF490958195EA
S11314709F4F0895709561957F4F0895A1E21A2EAC
S1131480AA1BBB1BFD010DC0AA1FBB1FEE1FFF1F24
S1131490A217B307E407F50720F0A21BB30BE40B74
S11314A0F50B661F771F881F991F1A9469F76095BB
S11314B07095809590959B01AC01BD01CF01089575
S11314C0AA1BBB1B51E107C0AA1FBB1FA617B70766
S11314D010F0A61BB70B881F991F5A95A9F7809582
S11314E09095BC01CD01089506D084FF0895CB01E9
S11314F002D0805F0895AA27992329F4A85F982B26
S113150011F480E10895903118F4AD5F9295A3959C
S1131510990FE8F78A2F992708952F923F924F92B7
S11315205F926F927F928F929F92AF92BF92CF926F
S1131530DF92EF92FF920F931F93CF93DF93CDB778
S1131540DEB7CA1BDB0B0FB6F894DEBF0FBECDBFF0
S113155009942A88398848885F846E847D848C84C1
S11315609B84AA84B984C884DF80EE80FD800C81CA
S11315701B81AA81B981CE0FD11D0FB6F894DEBFAD
S10F15800FBECDBFED010895F894FFCF1D
S113158C00000000000000003132333435363738A7
S113159C3920204F75747075742028646563292074
S11315AC200070736920203D2000736D4171203D33
S10D15BC20002D002C0056616C0085
S9030000FC
