S01200005374726F626F736B6F702E73726563DC
S11300007CC089C088C087C086C085C0D0C183C079
S113001082C081C0DF00F000A600950074003300A8
S11300202200180500051805000518050005180527
S11300300019FF080400040804000C080400040864
S113004004000C0804000408040004180400041844
S1130050040004100400041004000C100400041034
S113006004000C1004000410040004180400041814
S1130070040004FF08050005080500051005000537
S113008010050019100500051005000508050005F8
S113009008050019FF0805000508050019100500EA
S11300A00510050005FF08050005080500050805FD
S11300B000050805000508050005080500050805F4
S11300C000051005000510050005100500051005C4
S11300D00005100500051005000510050005FF08C2
S11300E0050005080500051005000510050005FFBD
S11300F00805000510050005FF0011241FBECFE907
S1130100CDBF20E0A0E6B0E001C01D92A337B20746
S1130110E1F7C3D071C174CFB1991AC08091600066
S11301208A3A10F080E008958F5F809360008630F3
S1130130C8F3873920F481E08093610006C083E02E
S11301408093610084EB8093600080916100089546
S11301501092600080916100813011F080E001C054
S113016082E0109261000895C09A8F5F880F809397
S11301706200609363006093640081E080936D008B
S1130180089580916D008823C9F0809164008150A6
S113019080936400811112C0809163008093640095
S11301A088B391E0892788BB809162008150809355
S11301B06200811103C010926D00C098089590915F
S11301C06600891304C090916700911119C080934F
S11301D06600E82FF0E0EE0FFF1FEC5EFF4F859105
S11301E09491809368009093690010926A00109231
S11301F06C0010926B001092650081E080936700A0
S113020008951092670088B3886188BB089580912F
S11302106700882309F440C080916B0090916C00C2
S11302200097A9F5809168009091690020916A0077
S1130230322F3F5F30936A00FC01E20FF11DE4911D
S1130240EF3F69F4209165002F3F19F02F5F209351
S1130250650021E020936A00FC01849101C08E2F87
S113026098B3977E982B98BB80916A00E0916800C0
S1130270F0916900E80FF11D8F5F80936A00E491AB
S1130280F0E03197F0936C00E0936B0008950197D0
S113029090936C0080936B00089589E187BB82E0A2
S11302A088BB84E028E198B3922798BB3FEF44E6EB
S11302B094E0315040409040E1F700C0000081508C
S11302C091F781E090E082D0809372002FEF35EABD
S11302D04EE0215030404040E1F700C0000080E093
S11302E090E074D08093710090917200913011F479
S11302F066DF03C088B3886188BB82E08FBD85E078
S113030083BF8CE586BF84E089BF7894C1E0809187
S11303106F008823E1F310926F00809172008111C5
S113032008C0B29B02C04BDF04C0809165008111FC
S113033068DFF2DE809370008330C1F48091720034
S1130340882331F0109272005CDF6BE480E008C017
S1130350C09372008091710032DF62E1809171007C
S113036003DF6091720081E090E038D080917000EA
S11303708230D1F4809172008130B1F480917100A7
S11303808F5F873019F08093710002C01092710062
S11303908091710014DF62E180917100E5DE60916B
S11303A0710080E090E01AD032DFEBDEB0CF1F9214
S11303B00F920FB60F9211248F9381E080936F00F8
S11303C08F910F900FBE0F901F901895E199FECF5B
S11303D01FBA8EBBE09A99278DB30895262FE19911
S11303E0FECF1CBA1FBA8EBB2DBB0FB6F894E29A8F
S10F03F0E19A0FBE01960895F894FFCF27
S9030000FC
