:0A00000021C0FECFFDCFFCCFFBCFE7
:10000A00FACF6CC0F8CFF7CFF6CFF5CFF4CFF3CF56
:10001A00F2CFF1CFF0CFEFCFEECFEDCF3F065B4F70
:10002A00666D7D077F6F0000006300000A00800094
:10003A0026000500030030000000F894EE27ECBB10
:10004A00E5BFF8E1A4B7A77FA4BFF1BDE1BD8DE08C
:10005A00A2E0ED938A95E9F780E8A0E6ED938A9508
:10006A00E9F7E6E3F0E085919591009761F0A591B3
:10007A00B59105901590BF01F00105900D92019779
:10008A00E1F7FB01F0CFE0E0E3BBE4BBE5BBEFED5A
:10009A00EDBFC0E83FC0E2B3EF60E2BB332009F432
:1000AA002301D201EAE0F0E0A8D0E058E081E8BB01
:1000BA00E2E0E31509F4C79AD201EAE0F0E08AD057
:1000CA002F0112B2E32DA1E07DD0E095E121E2BB40
:1000DA003394E3E0E31508F4332408950A921A925C
:1000EA00FA926A937A938A939A93AA93BA93EA931F
:1000FA00FA93EFB7EA93CFDFE991EFBFF991E9916C
:10010A00B991A9919991899179916991F9901990E7
:10011A0009901895E0E8E6BDE0E0E6BDEBBBEABB76
:10012A00E8BBEFEFE7BBE0E7E2BBEFE1E1BBE0E012
:10013A00E0BFE3E0E3BFE0E0E2BFE6BFECBFEFBD54
:10014A00EEBDEDBDECBDE5BDE4BDEBBDEABDE9BD6F
:10015A00E8BDEBBFE5BFE2E0E9BFE0E0EDB9EAB92F
:10016A00E0E8E8B9E0E0E1B9789485990BC0F301D9
:10017A0031973F01859906C0EAE0F0E0FA93EA93E5
:10018A0015D0F8CF86990BC0F30131963F018699B5
:10019A0006C0EAE0F0E0FA93EA9308D0F8CFEAE082
:1001AA00F0E0FA93EA9302D0E0CFFFCFE991F99118
:1001BA00309639F088EE93E00197F1F7A8953197D8
:1001CA00C9F70895EE230E2EEA2F19F0EE0F0A94BE
:1001DA00E9F708950024112490E1AA0FBB1F001C1F
:1001EA00111C0E1A1F0A18F40E0E1F1E01C0A16060
:1001FA009A9599F7FD01D0010895ECDFFD01089564
:00000001FF
