S016000041746D65676138385F616C61726D2E73726563E3
S113000044C053C052C051C0A4C04FC04EC04DC024
S11300104CC04BC04AC049C048C047C0A8C145C035
S113002044C043C042C041C040C03FC03EC03DC0C8
S11300303CC03BC084C1B0C0B5C0BAC0BFC0C4C01E
S1130040C9C0CEC0D3C0D8C0E1C0EAC0F3C0FCC0B0
S113005005C10EC117C120C129C132C13BC144C170
S11300604DC156C15FC16BC151996C52961552E88E
S11300701751F26CB7B0B3B8080E5173A7E653E446
S1130080B7B2B651EE6D0000000011241FBECFEFD1
S1130090D4E0DEBFCDBF21E0A0E0B1E001C01D92FD
S11300A0A731B207E1F779D1CDC2AACF88E087B9E9
S11300B087EF88B98EE084B981EF85B98FE78AB973
S11300C080E88BB9089582E084BD97E497BD95E0FC
S11300D095BD80936E0008951DBA1092690082E068
S11300E08093680010926B0080E380936C00109200
S11300F06D00089520E030E012C0FA0144914813E5
S11301000CC0F901EE0FFF1FE20FF31FE759FF4F79
S11301104591549146175707D1F02F5F3F4FA901DE
S1130120440F551F420F531F48595F4FFA019491D2
S11301309111E3CFF901EE0FFF1FE20FF31FE7590F
S1130140FF4FA591B491AB2BC1F680E0089581E0F7
S113015008951F920F920FB60F9211248F939F93BD
S1130160AF93BF93EF93FF9381E080930E01359B90
S113017002C03499F1C0809110018F5F8093100107
S11301803499DDC090E0FC013197EA31F10508F0C3
S1130190D3C0E65EFF4F099480910D01806880937F
S11301A00D01CDC080910D01806480930D01C7C005
S11301B080910D01806280930D01C1C080910D0179
S11301C0806180930D01BBC080910D018860809394
S11301D00D01B5C080910D01846080930D01AFC005
S11301E080910D01826080930D01A9C080910D0161
S11301F0816080930D01A3C080911101909112013F
S11302009068909312018093110199C0809111011B
S113021090911201906490931201809311018FC008
S11302208091110190911201906290931201809338
S1130230110185C0809111019091120190619093F8
S11302401201809311017BC08091110190911201E0
S11302509860909312018093110171C080911101F3
S1130260909112019460909312018093110167C0E0
S113027080911101909112019260909312018093E8
S113028011015DC0809111019091120191609093D0
S113029012018093110153C08091110190911201B8
S11302A08068909312018093110149C080911101DB
S11302B090911201806490931201809311013FC0C8
S11302C080911101909112018062909312018093A8
S11302D0110135C0809111019091120180619093B8
S11302E01201809311012BC0809111019091120190
S11302F08860909312018093110121C080911101B3
S1130300909112018460909312018093110117C09F
S11303108091110190911201826090931201809357
S113032011010DC08091110190911201816090938F
S113033012018093110103C0109210010DC080912D
S113034010018A3149F41092100181E08093080170
S113035010920E0110920A01FF91EF91BF91AF919B
S11303609F918F910F900FBE0F901F9018951F9221
S11303700F920FB60F9211248F9380910F018F5F0C
S113038080930F0180910C018F5F80930C018F91FA
S11303900F900FBE0F901F90189588DE9DDE93DEA0
S11303A080E090E035D1811101C0439A789408E04F
S11303B011E06894EE24E4F86894FF24F2F8C1E7AD
S11303C0D7E180910C018A3008F46CC010920C01C2
S11303D0319907C080910001843119F08F5F8093B7
S11303E00001319B06C080910001843110F4109209
S11303F0000131990AC080910101811106C08BB1BD
S11304008E258BB91093010107C0319B05C08091E3
S113041001018111109201015C9B17C080910201BE
S11304209091030101969093030180930201883215
S113043023E2920731F480910001843161F05C98E9
S11304400AC0019641F45C9806C010920301109210
S113045002011092000130990AC0809104018111B7
S113046006C08BB180278BB91093040107C0309B61
S113047005C0809104018111109204015B9B0EC0A0
S11304808091050190910601019690930601809355
S11304900501803A9C4831F45B9804C0109206012F
S11304A01092050180910F01882309F469C010920C
S11304B00F0180910E01813099F480910A018F5FC0
S11304C080930A018A3060F010920E0110920A01A2
S11304D01092100110920D0110921201109211014C
S11304E043990EC08091150190911601813727E13F
S11304F0920731F00196909316018093150111C073
S1130500439B0FC010921601109215015E985D98DE
S113051080E090E07DD0882321F060E080E090E0EE
S11305207FD080910B01882331F0809109018F5F86
S11305308093090102C0109209015E9B14C080914E
S11305401301909114010196813E2EE2920728F442
S1130550909314018093130106C010921401109219
S113056013015E985D98809107018F5F843119F0C3
S11305708093070105C01092070185B18F2585B9C5
S1130580809108018130B1F4109208016091110149
S11305907091120180910D01ADDD813019F488B1A3
S11305A0802788B91092100110920D011092120147
S11305B01092110180911501909116018037974195
S11305C041F4D0931601C0931501612F80E090E0AF
S11305D027D080E090E01CD0882381F0329B0EC0AD
S11305E080911501909116018137974139F4109348
S11305F00B01109214011092130102C010920B010E
S113060080910901833308F4DCCE5E9A5D9AD9CED9
S1130610F999FECF92BD81BDF89A992780B50895C6
S1130620262FF999FECF92BD81BDF89A019700B4A7
S1130630021639F01FBA20BD0FB6F894FA9AF99A47
S10B06400FBE0895F894FFCFEA
S9030000FC
