:0C00000017C0FECFFDCFFCCFFBCFFACF26
:10000C00F9CFF8CFF7CFF6CFF5CFF4CFF3CFF2CFC0
:10001C00F1CF000000000000000000000A00020008
:10002C001E000000F894EE27ECBBE5BFF8E1A895A4
:10003C00A4B7A77FA4BFF1BDE1BD8DE0A2E0ED9315
:10004C008A95E9F780E8A0E6ED938A95E9F7E8E26E
:10005C00F0E085919591009761F0A591B59105908F
:10006C001590BF01F00105900D920197E1F7FB018E
:10007C00F0CFE0E0E1BBE2BBE3BBEFEDEDBFC0E8EE
:10008C0044C0ACD000E010E020E830E07FD000E0CD
:10009C0010E00830E0E01E0780F481D0ED81F070B4
:1000AC00E223F323309711F07FD001C082D086D0A9
:1000BC00369527950F5F1F4FECCFC09888EF8A9528
:1000CC00F1F7C09A7BD062D020E830E000E010E07D
:1000DC000830E0E01E0788F462D0F901AC81BD81E4
:1000EC00EA23FB23309711F05FD001C062D066D0B9
:1000FC00369527950F5F1F4FEBCF51D0C09A88EFE5
:10010C008A95F1F770D02696089500E010E0E0E8AB
:10011C00E6BDE0E0E6BDEDE1E8BBE3E0E7BBE3E232
:10012C00EABDE3E0E3BFE0E0E2BFE9BDE8BDE7BD67
:10013C00E0BFECBDEFBDEEBDEBBDEDBDEBBFE5BF74
:10014C00E9BFEDB9E0E8E8B9E0E0E3B9E4BBE4B35A
:10015C00E370E4BBE4B3E4BBE0E0E7B9E6E8E6B99E
:10016C00E3B1EF75E3B9E4EFF1E0FA93EA932AD047
:10017C00E9E1F0E0FA93EA9325D0E3E3F3E3FA93B1
:10018C00EA937FDF0F5F1F4FF3CFFFCFC09885EA55
:10019C008A95F1F7C09A85EA8A95F1F70895C09887
:1001AC0083E58A95F1F70895C09A85EA8A95F1F767
:1001BC00089585EA8A95F1F7C09A089583E58A95A2
:1001CC00F1F70895E991F991309639F080ED97E0C7
:1001DC000197F1F7A8953197C9F708953A932A93A7
:1001EC001A930A9308953B812A81198108810895F5
:00000001FF
