:100000000EC094C225C024C065C222C021C020C039
:1000100071C21EC01DC01CC01BC01AC019C0112453
:100020001FBECFEDCDBF10E0A0E6B0E0E4E0F7E00A
:1000300002C005900D92A038B107D9F710E0A0E8F2
:10004000B0E001C01D92A238B107E1F7DCD258C37D
:10005000D7CFDF93CF93CDB7DEB7C450CDBF698381
:100060007A838B839C830BC089819A81AB81BC810D
:100070000197A109B10989839A83AB83BC838981E4
:100080009A81AB81BC810097A105B10569F7CC5F6E
:10009000CDBFCF91DF910895DF93CF930F92CDB76E
:1000A000DEB7898387E290E029812F702069FC0107
:1000B00020836AE070E080E090E0CBDF86E290E0B1
:1000C00026E230E0F90120812064FC012083000059
:1000D00086E290E0FC018081882F90E08071907032
:1000E0000097B1F386E290E026E230E0F90120814A
:1000F0002061FC01208384E290E0FC0180819181F9
:100100000F90CF91DF910895DF93CF93CDB7DEB7F6
:10011000C750CDBF9F838E8319821A821B821C8297
:100120001D8281E089831AC08981992787FD909576
:1001300001972981332727FD3095220F331F205A3D
:100140003F4FF90120813181880F991F805A9F4FBD
:10015000FC013183208389818F5F8983898180318C
:100160001CF38E819F8190937F0080937E008FE0AF
:1001700089831DC08981992787FD9095880F991FD4
:10018000805A9F4FFC0180819181CC01A0E0B0E0BA
:100190002A813B814C815D81820F931FA41FB51F73
:1001A0008A839B83AC83BD838981815089838981C4
:1001B000882304F78A819B81AC81BD81689413F800
:1001C000B695A795979587951694D1F79F838E83BB
:1001D0008E819F81C95FCDBFCF91DF910895DF935D
:1001E000CF93CDB7DEB788E390E025E0FC01208314
:1001F00087E390E028E1FC0120838AE490E0FC01A1
:10020000108283E590E0FC01108282E590E0FC0121
:10021000108289E490E0FC01108288E490E0FC0107
:10022000108287E490E0FC01108280E590E0FC0100
:1002300010828CE490E0FC0110828FE490E0FC01DD
:1002400010828EE490E0FC0110828BE490E0FC01CF
:1002500010828DE490E0FC0110828BE590E0FC01BF
:10026000108285E590E0FC01108289E590E0FC01B8
:1002700010828DE290E0FC01108288E290E020E89C
:10028000FC01208383E290E0FC01108284E390E093
:10029000FC01108284E390E024E330E0F901208146
:1002A0002370FC01208384E390E024E330E0F90133
:1002B00020812062FC01208387E290E020E9FC019C
:1002C000208386E290E021E8FC01208383E290E035
:1002D00023E230E0F90120812F75FC0120838BE5BA
:1002E00090E020E4FC01208385E590E022E0FC0121
:1002F000208360EA7FE080E090E0ABDE7894CF91ED
:10030000DF910895DF93CF930F92CDB7DEB71982B7
:1003100083E2898308C06EEF7FEF80E090E099DE92
:1003200089818150898331E08981882309F430E013
:1003300086E390E0FC0180818695882F90E08170B3
:10034000907021E0009709F020E0832F822388231A
:1003500011F70F90CF91DF910895DF93CF93CDB731
:10036000DEB7C350CDBF19821B821A8281E2898316
:1003700011C06EEF7FEF80E090E06BDE80E08CDEFE
:100380009B838A838A819B81BFDE9B838A83898149
:100390008150898331E08981882309F430E086E344
:1003A00090E0FC0180818695882F90E081709070AC
:1003B00021E0009709F020E0832F82238823C9F6EB
:1003C0008A819B81F3E080369F0748F588E390E0BF
:1003D000FC01808182958F70882F90E081709070F1
:1003E000882399F088E390E028E330E0F901208148
:1003F0002F7EFC01208388E390E028E330E0F901C0
:100400002081277FFC01208329C088E390E028E336
:1004100030E0F90120812061FC0120831FC08A8126
:100420009B81F3E084389F0750F488E390E028E351
:1004300030E0F90120812061FC0120830FC08A8116
:100440009B81F3E085389F0748F088E390E028E33C
:1004500030E0F90120812F7EFC0120838A819B817D
:10046000CD5FCDBFCF91DF910895DF93CF930F92F2
:10047000CDB7DEB789838981882F90E0009721F07E
:1004800081309105A1F01DC088E390E028E330E0C1
:10049000F90120812061FC01208388E390E028E3BA
:1004A00030E0F90120812860FC0120830AC088E344
:1004B00090E028E330E0F90120812F7EFC012083C9
:1004C000000068EE73E080E090E0C3DD0F90CF9114
:1004D000DF9108951F920F920FB60F921124DF93B0
:1004E000CF93CDB7DEB7CF91DF910F900FBE0F90B6
:1004F0001F9018951F920F920FB60F9211248F9391
:100500009F93EF93FF93DF93CF93CDB7DEB787E24F
:1005100090E0FC011082CF91DF91FF91EF919F91CC
:100520008F910F900FBE0F901F9018951F920F92F2
:100530000FB60F9211242F933F934F935F936F93B6
:100540007F938F939F93AF93BF93EF93FF93DF932B
:10055000CF93CDB7DEB764E670E080E090E079DD60
:1005600086E390E0FC01808186958695882F90E057
:1005700081709070009739F588E390E0FC018081EC
:10058000869586958695882F90E081709070882357
:1005900051F088E390E028E330E0F9012081277FE3
:1005A000FC01208311C088E390E028E330E0F901EA
:1005B00020812860FC01208307C06AE070E080E0B1
:1005C00090E047DD01C0000086E390E0FC018081FF
:1005D00086958695882F90E081709070009769F3DA
:1005E000CF91DF91FF91EF91BF91AF919F918F914B
:1005F0007F916F915F914F913F912F910F900FBE1F
:100600000F901F901895DF93CF93CDB7DEB7E7DD3E
:1006100086E390E0FC0180818695882F90E08170D0
:100620009070009709F04EC081E01FDF3EC095DE5C
:1006300086E390E0FC018081882F90E081709070CB
:10064000009751F480918000909181000A969093D8
:1006500081008093800009C080918000909181008A
:10066000019690938100809380008091800090910A
:100670008100F1E08C329F0730F46AE070E080E0A6
:1006800090E0E7DC12C088E390E028E330E0F90175
:1006900020812F7EFC01208388E390E028E330E076
:1006A000F9012081277FFC01208386E390E0FC0193
:1006B00080818695882F90E081709070009709F472
:1006C000B6CF18C0109281001092800080E0CDDE7D
:1006D00005C06AE070E080E090E0BBDC86E390E07B
:1006E000FC0180818695882F90E08170907088232E
:1006F00081F708DE6AE070E080E090E0AADC88CF55
:04070000F894FFCF9B
:10070400FFFFFFFFFFFFFFFFFFFFFFFFFFFFFFFFF5
:10071400FFFFFFFFFFFFFFFFFFFFFFFFFFFFFFFFE5
:00000001FF
