S010000054657374556172742E73726563D8
S11300000C942A000C9447000C9447000C9447006D
S11300100C9447000C9447000C9447000C94470040
S11300200C9447000C9447000C9447000C94DB019B
S11300300C9447000C9449000C946D000C944700F8
S11300400C9447000C9447000C9447000C94470010
S11300500C94470011241FBECFE5D8E0DEBFCDBF0E
S113006010E0A0E6B0E0E8EEF5E002C005900D92E5
S1130070AE37B107D9F720E0AEE7B0E001C01D927A
S1130080AB3AB207E1F70E9405020C94F2020C9419
S113009000001F920F920FB60F9211242F938F938B
S11300A09F93EF93FF93E091A9008E2F8F5F8F7042
S11300B09CB12091A800821731F0F0E0E856FF4F80
S11300C090838093A900FF91EF919F918F912F913D
S11300D00F900FBE0F901F9018951F920F920FB69E
S11300E00F9211248F939F93EF93FF938091AA0013
S11300F090918700891759F0E82FF0E0E857FF4FF7
S113010090819CB98F5F8F708093AA0001C055982D
S1130110FF91EF919F918F910F900FBE0F901F90C1
S113012018958091A9009091A800891B8F7008955B
S11301309091A8008091A900981751F0E92FF0E060
S1130140E856FF4F80819F5F9F709093A8000895A9
S113015080E00895E09187009E2F9F5F9F7020911B
S1130160AA00921739F0F0E0E857FF4F808390938C
S11301708700559A089587E689B910BC88E98AB939
S113018080E380BD089583E083BF85E082BF1CBE09
S113019081E089BF8FE39CE90197F1F700C000007B
S11301A0089584B3877084BB85B3886F85BB089535
S11301B09B9B15C09C9B15C09D9B15C09E9B15C009
S11301C09F9B15C01AC092ED9093850005C09F5F58
S11301D090938500943199F480938600089581E08A
S11301E007C082E005C083E003C084E001C085E06D
S11301F0909185009B3F58F3E6CF109285000895B7
S1130200BF9888B3806F88BB84B3876084BB85B391
S1130210876085BB089580916C008230C1F0843082
S113022051F18130E1F5B79B47C0B69B47C0B59B00
S113023047C0B49B47C04DC09EE19093830027C044
S1130240993118F49F5F9093830082E029C0B79B93
S113025043C0B69B43C0B59B43C0B49B43C049C095
S11302609EE19093820013C0993118F49F5F90939C
S1130270820084E015C0B79B42C0B69B42C0B59BC8
S113028042C0B49B42C038C09EE1909381008093E9
S113029084000895993118F49F5F9093810081E060
S11302A080936C0085B3876085BB95B380916C00A7
S11302B08095892385BB089583E005C086E003C04B
S11302C089E001C08CE090918300943109F0B8CFAB
S11302D0B3CF10928300B9CF82E005C085E003C09C
S11302E088E001C08BE090918200943109F0BCCF8A
S11302F0B7CF10928200BDCF10928100D0CF81E0A1
S113030005C084E003C087E001C08AE090918100C9
S1130310943109F0BFCFB8CF8BB38FEF8BBBC398A9
S11303209AB38ABB87B38F6087BB089588B3807FF5
S113033088BB80918000811108C080916A009091EF
S11303406B0090937F0080937E0080917E0090915B
S11303507F006AE070E00E94DE02805A9F4FFC0139
S113036080818BBB80918000823009F4DF9A809178
S11303707E0090917F006AE070E00E94DE0270933C
S11303807F0060937E0028B33091800081E090E08C
S1130390032E01C0880F0A94EAF7282B28BB80910A
S11303A080008F5F8093800080918000843010F003
S11303B01092800008951F920F920FB60F9211248D
S11303C02F933F934F935F936F937F938F939F9359
S11303D0AF93BF93EF93FF9387E082BF0E94D8004F
S11303E00E940B010E949601FF91EF91BF91AF9182
S11303F09F918F917F916F915F914F913F912F9139
S11304000F900FBE0F901F901895CF93DF93CDB729
S1130410DEB761970FB6F894DEBF0FBECDBF80E1A3
S1130420EDE6F0E066246394712C6C0E7D1ED3011E
S113043001900D928A95E1F70E94C3000E94BB00CF
S11304400E94D1000E9400010E948C017894912C9A
S1130450862C03E010E024E0E22EF12C35E0C32EDC
S1130460D12C42E0A42EB12C5AE0252E312C892D1A
S11304700E94AA0093942FEF81EE94E021508040D3
S11304809040E1F700C000000E949100982F811174
S113049011C08091860010928600833029F128F4DF
S11304A08130B1F0823071F51AC0843011F1853099
S11304B049F524C0230107C0998B0E949800F201DA
S11304C081932F019989842D88198917A8F3E1CF85
S11304D0898190E090936B0080936A0013C0B0927E
S11304E06B00A0926A000EC010936B0000936A0028
S11304F009C0F0926B00E0926A0004C0D0926B00D5
S1130500C0926A0080918400109284008630B9F110
S113051078F4833029F130F48130D1F0823009F05D
S1130520A6CF19C0843009F1853009F0A0CF22C0CC
S1130530893071F130F4873029F1883009F097CF90
S113054024C08B3069F138F18C3009F090CF2FC082
S113055081E090E027C0B0926B00A0926A0087CF40
S113056010936B0000936A0082CFF0926B00E092CC
S11305706A007DCFD0926B00C0926A0078CF86E08B
S113058090E010C0E7E0F0E014C088E090E00AC01A
S1130590E9E0F0E00EC030926B0020926A0067CF71
S11305A08BE090E090936B0080936A0060CFECE066
S11305B0F0E0F0936B00E0936A0059CFAA1BBB1BD9
S11305C051E107C0AA1FBB1FA617B70710F0A61B4F
S11305D0B70B881F991F5A95A9F780959095BC0170
S10B05E0CD010895F894FFCF4A
S11305E83F065B4F666D7D077F6F3D2201FFFFFF6E
S11105F8FFFFFFFFFFFFFFFFFFFFFFFFFF00FE
S9030000FC
